:020000040800F2
:100000000020002001020008D7010008D9010008E3
:1000100000000000000000000000000000000000E0
:10002000000000000000000000000000DB010008EC
:100030000000000000000000DD010008DF010008F2
:100040005102000851020008510200085102000844
:100050005102000851020008510200085102000834
:100060005102000851020008510200085102000824
:100070005102000851020008510200085102000814
:10008000510200085102000800000000510200085F
:1000900051020008510200085102000851020008F4
:1000A00051020008510200085102000851020008E4
:1000B000510200080000000051020008000000008A
:1000C00010B5064C2378002B07D1054B002B02D02E
:1000D000044800E000BF0123237010BD040000208D
:1000E000000000009C020008044B10B5002B03D058
:1000F0000349044800E000BF10BDC04600000000F6
:10010000080000209C0200080020002011010008C7
:1001100026484169264A1143416126485521C1605C
:100120002549264A0A600022224804690F263440E5
:100130000F2C28D00F2634400E2C14D00F2634401C
:100140000D2C14D00F2634400B2C14D00F26344025
:10015000072C03D00F2634400C2C10D01A4801680D
:10016000002914D0E0E7023200F017F80FE0013266
:1001700000F017F80BE0AA230F484361D4E70232DE
:1001800000F00FF803E0013200F007F8FFE7FF236B
:100190001A40FFE708484261C6E7094B013BFDD121
:1001A0007047084B013BFDD17047C046001002402C
:1001B00000000600000000480004004855550000FB
:1001C000C05C1500C02709000000000010B5FFF753
:1001D0009FFF002010BDFEE7FEE77047704710B597
:1001E00000F002F810BD7047034A1168034B1B78FA
:1001F0005B1813607047C0462000002000000020FC
:100200000D488546FFF7EFFF0C480D490D4A0023C6
:1002100002E0D458C4500433C4188C42F9D30A4ABB
:100220000A4C002301E013600432A242FBD300F029
:1002300011F8FFF7CBFFFEE70020002000000020B0
:1002400004000020BC02000804000020240000205C
:10025000FEE7000070B500260C4C0D4D641BA41089
:10026000A64209D1002600F019F80A4C0A4D641B79
:10027000A410A64205D170BDB300EB5898470136D3
:10028000EEE7B300EB5898470136F2E7B4020008F6
:10029000B4020008B8020008B4020008F8B5C0466D
:1002A000F8BC08BC9E467047F8B5C046F8BC08BC10
:0402B0009E467047AF
:0402B400E900000855
:0402B800C100000879
:0402BC00010000003D
:0400000508000201EC
:00000001FF
